{
  "_format": "hh-sol-artifact-1",
  "contractName": "Georli_Testnet",
  "sourceName": "contracts/Georli_Testnet.sol",
  "abi": [
    {
      "inputs": [
        {
          "internalType": "uint256",
          "name": "initBalance",
          "type": "uint256"
        }
      ],
      "stateMutability": "payable",
      "type": "constructor"
    },
    {
      "inputs": [
        {
          "internalType": "uint256",
          "name": "balance",
          "type": "uint256"
        },
        {
          "internalType": "uint256",
          "name": "withdrawAmount",
          "type": "uint256"
        }
      ],
      "name": "InsufficientBalance",
      "type": "error"
    },
    {
      "anonymous": false,
      "inputs": [
        {
          "indexed": false,
          "internalType": "uint256",
          "name": "amount",
          "type": "uint256"
        }
      ],
      "name": "Deposit_Georli",
      "type": "event"
    },
    {
      "anonymous": false,
      "inputs": [
        {
          "indexed": false,
          "internalType": "uint256",
          "name": "amount",
          "type": "uint256"
        }
      ],
      "name": "Withdraw_Georli",
      "type": "event"
    },
    {
      "inputs": [
        {
          "internalType": "uint256",
          "name": "_amount",
          "type": "uint256"
        }
      ],
      "name": "Deposit",
      "outputs": [],
      "stateMutability": "payable",
      "type": "function"
    },
    {
      "inputs": [],
      "name": "balance",
      "outputs": [
        {
          "internalType": "uint256",
          "name": "",
          "type": "uint256"
        }
      ],
      "stateMutability": "view",
      "type": "function"
    },
    {
      "inputs": [],
      "name": "getBalance",
      "outputs": [
        {
          "internalType": "uint256",
          "name": "",
          "type": "uint256"
        }
      ],
      "stateMutability": "view",
      "type": "function"
    },
    {
      "inputs": [],
      "name": "getContractAddress",
      "outputs": [
        {
          "internalType": "address",
          "name": "",
          "type": "address"
        }
      ],
      "stateMutability": "view",
      "type": "function"
    },
    {
      "inputs": [],
      "name": "owner",
      "outputs": [
        {
          "internalType": "address payable",
          "name": "",
          "type": "address"
        }
      ],
      "stateMutability": "view",
      "type": "function"
    },
    {
      "inputs": [
        {
          "internalType": "uint256",
          "name": "_withdrawAmount",
          "type": "uint256"
        }
      ],
      "name": "withdraw",
      "outputs": [],
      "stateMutability": "nonpayable",
      "type": "function"
    }
  ],
  "bytecode": "0x60806040526040516107b93803806107b9833981810160405281019061002591906100ad565b336000806101000a81548173ffffffffffffffffffffffffffffffffffffffff021916908373ffffffffffffffffffffffffffffffffffffffff16021790555080600181905550506100da565b600080fd5b6000819050919050565b61008a81610077565b811461009557600080fd5b50565b6000815190506100a781610081565b92915050565b6000602082840312156100c3576100c2610072565b5b60006100d184828501610098565b91505092915050565b6106d0806100e96000396000f3fe6080604052600436106100555760003560e01c806312065fe01461005a5780632e1a7d4d1461008557806332a2c5d0146100ae5780634d6ce1e5146100d95780638da5cb5b146100f5578063b69ef8a814610120575b600080fd5b34801561006657600080fd5b5061006f61014b565b60405161007c91906103f7565b60405180910390f35b34801561009157600080fd5b506100ac60048036038101906100a79190610443565b610155565b005b3480156100ba57600080fd5b506100c36102a6565b6040516100d091906104b1565b60405180910390f35b6100f360048036038101906100ee9190610443565b6102ae565b005b34801561010157600080fd5b5061010a6103b4565b60405161011791906104ed565b60405180910390f35b34801561012c57600080fd5b506101356103d8565b60405161014291906103f7565b60405180910390f35b6000600154905090565b60008054906101000a900473ffffffffffffffffffffffffffffffffffffffff1673ffffffffffffffffffffffffffffffffffffffff163373ffffffffffffffffffffffffffffffffffffffff16146101e3576040517f08c379a00000000000000000000000000000000000000000000000000000000081526004016101da9061058b565b60405180910390fd5b6000600154905081600154101561023557600154826040517fcf47918100000000000000000000000000000000000000000000000000000000815260040161022c9291906105ab565b60405180910390fd5b81600160008282546102479190610603565b92505081905550818161025a9190610603565b6001541461026b5761026a610637565b5b7f6cb01118f7f08f5d5e33250fc97a99acc5d5b0da012d1b104bf31d0d06fc070a8260405161029a91906103f7565b60405180910390a15050565b600030905090565b6000600154905060008054906101000a900473ffffffffffffffffffffffffffffffffffffffff1673ffffffffffffffffffffffffffffffffffffffff163373ffffffffffffffffffffffffffffffffffffffff1614610343576040517f08c379a000000000000000000000000000000000000000000000000000000000815260040161033a9061058b565b60405180910390fd5b81600160008282546103559190610666565b9250508190555081816103689190610666565b6001541461037957610378610637565b5b7f1c17fc5f8f892b175129daa1bbcfb0f312d8ee2c242656a113419e607d3f5517826040516103a891906103f7565b60405180910390a15050565b60008054906101000a900473ffffffffffffffffffffffffffffffffffffffff1681565b60015481565b6000819050919050565b6103f1816103de565b82525050565b600060208201905061040c60008301846103e8565b92915050565b600080fd5b610420816103de565b811461042b57600080fd5b50565b60008135905061043d81610417565b92915050565b60006020828403121561045957610458610412565b5b60006104678482850161042e565b91505092915050565b600073ffffffffffffffffffffffffffffffffffffffff82169050919050565b600061049b82610470565b9050919050565b6104ab81610490565b82525050565b60006020820190506104c660008301846104a2565b92915050565b60006104d782610470565b9050919050565b6104e7816104cc565b82525050565b600060208201905061050260008301846104de565b92915050565b600082825260208201905092915050565b7f596f7520617265206e6f7420746865206f776e6572206f66207468697320616360008201527f636f756e74000000000000000000000000000000000000000000000000000000602082015250565b6000610575602583610508565b915061058082610519565b604082019050919050565b600060208201905081810360008301526105a481610568565b9050919050565b60006040820190506105c060008301856103e8565b6105cd60208301846103e8565b9392505050565b7f4e487b7100000000000000000000000000000000000000000000000000000000600052601160045260246000fd5b600061060e826103de565b9150610619836103de565b9250828203905081811115610631576106306105d4565b5b92915050565b7f4e487b7100000000000000000000000000000000000000000000000000000000600052600160045260246000fd5b6000610671826103de565b915061067c836103de565b9250828201905080821115610694576106936105d4565b5b9291505056fea2646970667358221220a4681ee9f31ff19b9ed8d8e7cfbaf50e8c021469d84663c42b2562a73004361064736f6c63430008110033",
  "linkReferences": {},
  "deployedLinkReferences": {}
}